:020000040000FA
:0400000065EF00F0B8
:020004000000FA
:040008000DEF00F008
:08001800110052EC00F0002A77
:10002000012A092A1100010EC26E0E0EC16E840E45
:10003000C06E1200046A066A006A016A026A036AF4
:10004000056A096A086A0B6A0A6A126A1368050E69
:100050000F6E0A0E106E140E056E1200900EAB6E2F
:10006000260EAC6E810EAF6EB06AB86A1200949A1A
:10007000949694949380938293849396959095927A
:10008000959495969598959A959EC69AF19E8C68AA
:100090008B6A1200880ED56ED09EE00EF26E52EC86
:1000A00000F01200D80ED76EF00ED66EF294120049
:1000C00080F54C64716202F4002013EC00F01AEC2D
:1000D00000F037EC00F02EEC00F04AEC00F09EBA95
:1000E00087EC00F0C0EC01F081A218EC02F004B043
:1000F00045EC02F004A04FEC02F008A058EC01F02F
:1001000081B064EC01F077EC01F06FEF00F0AEAE7F
:100110001200800EAE6492EF01F0810EAE6492EF99
:1001200001F0820EAE64C4EF00F0830EAE641EEFE9
:1001300001F0840EAE6435EF02F0850EAE6438EF48
:1001400002F0890EAE64B2EF00F08A0EAE64FDEFED
:1001500001F08B0EAE643CEF01F08C0EAE6432EF1A
:1001600001F012004CEC01F08B841200000EF86ECE
:10017000000EF76EC00EF66E12000900F5CF8CFF70
:100180001200EF0E8C6E1200000E07641EEF01F0DD
:10019000EA6A800EE96E0B6A0D6A0A6AEECF0CF00D
:1001A00024EC01F0006A83CF13F0B6EC00F0BDEC54
:1001B00000F00F50006212EF01F01050006218EFD3
:1001C00001F0006A6BEC01F00A2A0D2A080E0D649A
:1001D00000EF01F00D6AEECF0CF00E500A6003EF55
:1001E00001F0D9EF00F00EC0ADFF50EC01F00AC0F5
:1001F000ADFF50EC01F00BC0ADFF50EC01F0120070
:100200000C42D9EF00F00B2A0A6ABDEC00F00A0E8E
:100210000B600DEF01F0D9EF00F0046A048213C007
:100220008CFF12000CB08B9A0CA08B8AD9EF00F0D7
:100230000CB08B8A0CA08B9ADDEF00F07F0E8C6ED9
:10024000046A048273EF01F006B8F00E06A8780E77
:100250000E6E1200870EAD6E50EC01F006C0ADFFC1
:1002600050EF01F09EAA32EF01F0AECF0FF054EC48
:1002700001F0AECF10F0120006C0ADFF50EF01F05C
:10028000820EAD6E50EF01F0810EAD6E50EF01F0B9
:10029000800EAD6E50EF01F0010EAD6E50EF01F02B
:1002A000ACA250EF01F012009EAA54EF01F0120030
:1002B00081B012008A86340E09641200096A880E21
:1002C000AD6E50EF01F012008A9608B21200096A72
:1002D000086A08821200860EAD6E50EF01F08A0E99
:1002E000AD6E50EF01F0830EAD6E50EF01F0640E75
:1002F00000641200C282C2B27BEF01F08D0EAD6EBF
:1003000050EC01F0C3CFADFF50EC01F0006A1200D9
:100310009EAA88EF01F0AECF06F006C0ADFF50EC0C
:1003200001F0120048EC01F0006AAE6A066A88EC3F
:1003300001F0076A046AEA6A800EE96E0CC0EEFFFB
:100340009EAAA0EF01F0970E0760B0EF01F0AECFCC
:10035000EEFF072A07C0ADFF50EC01F0A0EF01F05F
:1003600006B8B8EF01F0069EC1EC00F070EF02F0A5
:1003700006BEB3EF01F0068E076A072AA7EF01F069
:10038000000E1264CEEF01F012B0D2EF01F012B203
:10039000DFEF01F012B4EFEF01F0120081A410EFD3
:1003A00002F01200640E00600BEC02F081A4120057
:1003B000140E11600EEF02F0126A12821200640E27
:1003C00000600BEC02F0140E116007EF02F081B434
:1003D0001200006A30EC02F0126A12841200640EFD
:1003E00000600BEC02F081A4120030EC02F0140E5D
:1003F00011600EEF02F0FDEF01F0126A046A8C68E2
:1004000042EC02F0066A076A6FEC01F01200126A11
:1004100044EC01F01200112A006A1200126A120064
:1004200030EC02F030EC02F01280116A006A120027
:100430008B948B96006A30EC02F02CEC02F0000EEC
:1004400006641EEF01F02AEC01F0C4EC00F012008B
:1004500081A428EF02F0120081A22CEF02F012001A
:100460000A0E006430EF02F0120070EC02F012008D
:10047000AE6A4CEC01F0046A0480016A12008B84BD
:100480008B8612008B948B9612000A0E01643FEF4C
:1004900002F042EC02F0140E0160016A120004B294
:1004A0009DEF02F004B493EF02F004B698EF02F06F
:1004B00004B876EF02F01200016A046A04881200A0
:1004C000046A000E07646BEF02F00484032A016AD9
:1004D000B4EF02F012000486140E036E67EF02F010
:1004E000046A016A036A0270048212000350016404
:1004F000B4EF02F0000E076490EF02F005500164C3
:10050000BDEF02F0016A000E07648CEF02F00306F3
:10051000D8B870EF02F01200040E035E88EF02F00C
:1005200005047FEF02F0740E01605CEF02F0120030
:10053000140E01605CEF02F0120003500164B4EF8E
:1005400002F005500162BDEF02F0016A000E07647F
:10055000B0EF02F0032A05500362120060EF02F0D0
:10056000050E0326ABEF02F002B0B9EF02F08B8468
:1005700012008B8612008B96120002B0BBEF02F0C5
:040580008B94120046
:020000040030CA
:0100010006F8
:010003001EDE
:010005008179
:010006008178
:00000001FF
