:020000040000FA
:0400000065EF00F0B8
:020004000000FA
:040008000DEF00F008
:08001800110053EC00F0002A76
:10002000012A092A1100030EC26E0E0EC16E840E43
:10003000C06E1200046A066A006A016A026A036AF4
:10004000056A096A086A0B6A0A6A126A050E0F6E67
:100050000A0E106E140E056E1200900EAB6E260E78
:10006000AC6E810EAF6EB06AB86A12009490949232
:10007000949694949380938293849396959095927A
:10008000959495969598959A959EC69AF19E5C0E34
:100090008C6E8B6A1200880ED56ED09EE00EF26ECA
:1000A00053EC00F01200D80ED76EF00ED66EF2941C
:0200B00012003C
:1000C0007FF54C64716202F4002013EC00F01AEC2E
:1000D00000F036EC00F02DEC00F04BEC00F09EBA96
:1000E00082EC00F071EC01F004B0EEEC01F004A041
:1000F000F8EC01F008A023EC01F081B02EEC01F047
:100100006FEF00F0AEAE1200800EAE6447EF01F06C
:10011000810EAE644AEF01F0820EAE64ADEF00F0E6
:10012000830EAE64FAEF00F0840EAE64DEEF01F0F1
:10013000850EAE64E1EF01F0870EAE644AEF02F087
:10014000890EAE64A9EF00F08B0EAE6407EF01F0EC
:10015000120017EC01F08B841200000E0764FAEF16
:1001600000F0EA6A800EE96E0B6A0D6A0A6AEECF49
:100170000CF001EC01F00F500064F0EC00F01052B4
:100180000064F5EC00F035EC01F00A2A0D2A080EA7
:100190000D64E1EF00F00D6AEECF0CF00E500A6036
:1001A000E5EF00F0BBEF00F00EC0ADFF1BEC01F07F
:1001B0000AC0ADFF1BEC01F00BC0ADFF1BEC01F062
:1001C0001200006A0C42BBEF00F00B2A0A6A0A0E0A
:1001D0000B60EDEF00F0BBEF00F0046A0482120048
:1001E0000CB08B9A0CA08B8A12000CB08B8A0CA0DE
:1001F0008B9A12007F0E8C6E046A048017EC01F05B
:10020000120006B8F00E06A8780E0E6E120006C098
:10021000ADFF1BEF01F0820EAD6E1BEF01F0810E02
:10022000AD6E1BEF01F0800EAD6E1BEF01F0010E05
:10023000AD6E1BEF01F0ACA21BEF01F012009EAA05
:100240001FEF01F0120081B01200340E0964120099
:10025000096A880EAD6E1BEF01F0120008B21200A1
:10026000096A086A08828A961200860EAD6E1BEF34
:1002700001F08A0EAD6E1BEF01F09EAA3DEF01F07A
:10028000AECF06F006C0ADFF1BEC01F01200006A15
:1002900013EC01F0AE6A066A3DEC01F0076A046AED
:1002A000EA6A800EE96E9EAA53EF01F0970E07608E
:1002B00063EF01F0AECFEEFF072A07C0ADFF1BECE6
:1002C00001F053EF01F006B869EF01F0069E0DEF63
:1002D00002F006BE66EF01F0068E076A072A5AEFA3
:1002E00001F0000E12647FEF01F012B083EF01F015
:1002F00012B290EF01F012B4A0EF01F0120081A44D
:10030000C1EF01F01200640E0060BCEC01F081A4AA
:100310001200140E1160BFEF01F0126A1282120077
:10032000640E0060BCEC01F0140E1160B4EF01F03B
:1003300081B41200006AD9EC01F0126A1284120032
:10034000640E0060BCEC01F081A41200140E116474
:10035000ACEF01F0126A1200126A8B868B84066A77
:10036000076A39EC01F01200126A8B868B9481B017
:1003700012000FEC01F01200112A006A1200126A3A
:100380001200006AD9EC01F01280116A1200006AB2
:10039000D9EC01F0D5EC01F0000E0764FAEF00F0A3
:1003A000120081A4D1EF01F0120081A2D5EF01F07B
:1003B0001200200E0062D9EF01F012000DEC02F0E5
:1003C0001200AE6A17EC01F0046A0480016A1200A0
:1003D0008B848B8612008B948B9612000A0E01641C
:1003E000E8EF01F0EBEC01F0140E0160016A12007D
:1003F00004B226EF02F004B421EF02F004B613EFCA
:1004000002F01200016A046A04861200046A04847D
:10041000032A016A35EF02F01200046A016A036AD6
:100420000270048212000350016435EF02F005509F
:1004300001643EEF02F0016A0306D8B80DEF02F046
:100440001200740E016002EF02F01200035001640A
:1004500035EF02F0055001643EEF02F0016A032A15
:100460000550036006EF02F0120002B03AEF02F00E
:100470008B8412008B8612008B96120002B03CEF28
:1004800002F08B941200850EAD6E1BEC01F01FEC98
:1004900001F01200870EAD6E1BEC01F00350AD6E43
:0604A0001BEC01F012004C
:020000040030CA
:0100010006F8
:010003001EDE
:010005008179
:010006008178
:00000001FF
