:020000040000FA
:0400000065EF00F0B8
:020004000000FA
:040008000DEF00F008
:08001800110052EC00F0002A77
:10002000012A092A1100030EC26E0E0EC16E840E43
:10003000C06E1200046A066A006A016A026A036AF4
:10004000056A096A086A0B6A0A6A126A1368050E69
:100050000F6E0A0E106E140E056E1200900EAB6E2F
:10006000260EAC6E810EAF6EB06AB86A1200949A1A
:10007000949694949380938293849396959095927A
:10008000959495969598959A959EC69AF19E8C68AA
:100090008B6A1200880ED56ED09EE00EF26E52EC86
:1000A00000F01200D80ED76EF00ED66EF294120049
:1000C00080F54C64716202F4002013EC00F01AEC2D
:1000D00000F037EC00F02EEC00F04AEC00F09EBA95
:1000E00085EC00F0AAEC01F081A20EEC02F004B065
:1000F00039EC02F004A043EC02F008A057EC01F048
:1001000081B062EC01F06FEF00F0AEAE1200800E35
:10011000AE647EEF01F0810EAE647EEF01F0820EE0
:10012000AE64C2EF00F0830EAE641CEF01F0840EEB
:10013000AE6429EF02F0850EAE642CEF02F0890E5A
:10014000AE64B0EF00F08A0EAE64F3EF01F08B0EF8
:10015000AE643BEF01F08C0EAE6431EF01F01200A3
:100160004BEC01F08B841200000EF86E000EF76E5F
:10017000C00EF66E12000900F5CF8CFF1200EF0ED4
:100180008C6E1200000E07641CEF01F0EA6A800E0C
:10019000E96E0B6A0D6A0A6AEECF0CF023EC01F0EF
:1001A000006A83CF13F0B4EC00F0BBEC00F00F500A
:1001B000006210EF01F01050006216EF01F0006ACB
:1001C00068EC01F00A2A0D2A080E0D64FEEF00F01B
:1001D0000D6AEECF0CF00E500A6001EF01F0D7EF80
:1001E00000F00EC0ADFF4FEC01F00AC0ADFF4FECC8
:1001F00001F00BC0ADFF4FEC01F012000C42D7EF45
:1002000000F00B2A0A6ABBEC00F00A0E0B600BEF41
:1002100001F0D7EF00F0046A048213C08CFF1200D3
:100220000CB08B9A0CA08B8AD7EF00F00CB08B8AA5
:100230000CA08B9ADBEF00F07F0E8C6E046A0480BA
:1002400070EC01F0120006B8F00E06A8780E0E6EE3
:100250001200870EAD6E4FEC01F006C0ADFF4FEF00
:1002600001F09EAA31EF01F0AECF0FF053EC01F098
:10027000AECF10F0120006C0ADFF4FEF01F0820EBE
:10028000AD6E4FEF01F0810EAD6E4FEF01F0800EBD
:10029000AD6E4FEF01F0010EAD6E4FEF01F0ACA26D
:1002A0004FEF01F012009EAA53EF01F0120081B04F
:1002B0001200340E09641200096A880EAD6E4FEF09
:1002C00001F0120008B21200096A086A08821200DE
:1002D000860EAD6E4FEF01F08A0EAD6E4FEF01F05E
:1002E000830EAD6E4FEF01F09EAA74EF01F0AECF1A
:1002F00006F006C0ADFF4FEC01F0120047EC01F034
:10030000006AAE6A066A74EC01F0076A046AEA6A77
:10031000800EE96E9EAA8AEF01F0970E07609AEFB1
:1003200001F0AECFEEFF072A07C0ADFF4FEC01F0A2
:100330008AEF01F006B8A2EF01F0069EBFEC00F0D4
:1003400064EF02F006BE9DEF01F0068E076A072AF1
:1003500091EF01F0000E1264C4EF01F0FF0EAD6EDC
:100360004FEC01F012B0C8EF01F0FE0EAD6E4FEC95
:1003700001F012B2D5EF01F0FD0EAD6E4FEC01F0C1
:1003800012B4E5EF01F0120081A406EF02F01200B2
:10039000640E006001EC02F081A41200140E1160E2
:1003A00004EF02F0126A12821200640E006001EC87
:1003B00002F0140E1160FDEF01F081B41200006A2A
:1003C00024EC02F0126A12841200640E006001EC48
:1003D00002F081A4120024EC02F0140E116004EF6C
:1003E00002F0F3EF01F0126A046A8C6836EC02F056
:1003F000066A076A6CEC01F01200126A43EC01F025
:100400001200112A006A1200126A120024EC02F093
:1004100024EC02F01280116A006A1200006A24ECD7
:1004200002F020EC02F0000E06641CEF01F029EC53
:1004300001F0C2EC00F0120081A41CEF02F01200E7
:1004400081A220EF02F012000A0E006424EF02F0F5
:10045000120064EC02F01200AE6A4BEC01F0046A88
:100460000480016A12008B848B8612008B948B9619
:1004700012000A0E016433EF02F036EC02F0140EA3
:100480000160016A120004B291EF02F004B487EF38
:1004900002F004B68CEF02F004B86AEF02F012002A
:1004A000016A046A04881200046A000E07645FEFA0
:1004B00002F00484032A016AA8EF02F01200048605
:1004C000140E036E5BEF02F0046A016A036A0270A5
:1004D0000482120003500164A8EF02F0000E0764CA
:1004E00084EF02F005500164B1EF02F0016A000EE2
:1004F000076480EF02F00306D8B864EF02F0120040
:10050000040E035E7CEF02F0050473EF02F0740E3C
:10051000016050EF02F01200140E016050EF02F083
:10052000120003500164A8EF02F005500162B1EF20
:1005300002F0016A000E0764A4EF02F0032A0550DE
:100540000362120054EF02F0050E03269FEF02F043
:1005500002B0ADEF02F08B8412008B8612008B96F6
:0C056000120002B0AFEF02F08B9412000A
:020000040030CA
:0100010006F8
:010003001EDE
:010005008179
:010006008178
:00000001FF
