:020000040000FA
:0400000065EF00F0B8
:020004000000FA
:040008000DEF00F008
:08001800110052EC00F0002A77
:10002000012A092A1100010EC26E0E0EC16E840E45
:10003000C06E1200046A066A006A016A026A036AF4
:10004000056A096A086A0B6A0A6A126A1368050E69
:100050000F6E0A0E106E140E056E1200900EAB6E2F
:10006000260EAC6E810EAF6EB06AB86A1200949A1A
:10007000949694949380938293849396959095927A
:10008000959495969598959A959EC69AF19E8C68AA
:100090008B6A1200880ED56ED09EE00EF26E52EC86
:1000A00000F01200D80ED76EF00ED66EF294120049
:1000C00080F54C64716202F4002013EC00F01AEC2D
:1000D00000F037EC00F02EEC00F04AEC00F09EBA95
:1000E00087EC00F0D7EC01F081A22FEC02F004B015
:1000F0005CEC02F004A066EC02F008A058EC01F001
:1001000081B064EC01F077EC01F06FEF00F0AEAE7F
:100110001200800EAE64A9EF01F0810EAE64A9EF6B
:1001200001F0820EAE64C4EF00F0830EAE641EEFE9
:1001300001F0840EAE644CEF02F0850EAE644FEF1A
:1001400002F0890EAE64B2EF00F08A0EAE6414EFD6
:1001500002F08B0EAE643CEF01F08C0EAE6432EF19
:1001600001F012004CEC01F08B841200000EF86ECE
:10017000000EF76EC00EF66E12000900F5CF8CFF70
:100180001200EF0E8C6E1200000E07641EEF01F0DD
:10019000EA6A800EE96E0B6A0D6A0A6AEECF0CF00D
:1001A00024EC01F0006A83CF13F0B6EC00F0BDEC54
:1001B00000F00F50006212EF01F01050006218EFD3
:1001C00001F0006A6BEC01F00A2A0D2A080E0D649A
:1001D00000EF01F00D6AEECF0CF00E500A6003EF55
:1001E00001F0D9EF00F00EC0ADFF50EC01F00AC0F5
:1001F000ADFF50EC01F00BC0ADFF50EC01F0120070
:100200000C42D9EF00F00B2A0A6ABDEC00F00A0E8E
:100210000B600DEF01F0D9EF00F0046A048213C007
:100220008CFF12000CB08B9A0CA08B8AD9EF00F0D7
:100230000CB08B8A0CA08B9ADDEF00F07F0E8C6ED9
:10024000046A048273EF01F006B8F00E06A8780E77
:100250000E6E1200870EAD6E50EC01F006C0ADFFC1
:1002600050EF01F09EAA32EF01F0AECF0FF054EC48
:1002700001F0AECF10F0120006C0ADFF50EF01F05C
:10028000820EAD6E50EF01F0810EAD6E50EF01F0B9
:10029000800EAD6E50EF01F0010EAD6E50EF01F02B
:1002A000ACA250EF01F012009EAA54EF01F0120030
:1002B00081B012008A86340E09641200096A880E21
:1002C000AD6E50EF01F012008A9608B21200096A72
:1002D000086A08821200860EAD6E50EF01F08A0E99
:1002E000AD6E50EF01F0830EAD6E50EF01F0640E75
:1002F000006412000C6AC282C2B27CEF01F08D0E63
:10030000AD6E50EC01F0C3CF0CF0C4CF0AF00A463A
:100310000A460A460A460A460A460C420C423F0E64
:100320000C160A500C26000E0C640C2A0CC0ADFFF3
:1003300050EC01F0006A0C6A0A6A120012009EAAD0
:100340009FEF01F0AECF06F006C0ADFF50EC01F01C
:10035000120048EC01F0006AAE6A066A9FEC01F0F8
:10036000076A046AEA6A800EE96E0CC0EEFF9EAA74
:10037000B7EF01F0970E0760C7EF01F0AECFEEFFC9
:10038000072A07C0ADFF50EC01F0B7EF01F006B847
:10039000CFEF01F0069EC1EC00F087EF02F006BE41
:1003A000CAEF01F0068E076A072ABEEF01F0000EC1
:1003B0001264E5EF01F012B0E9EF01F012B2F6EFCE
:1003C00001F012B406EF02F0120081A427EF02F050
:1003D0001200640E006022EC02F081A41200140EE0
:1003E000116025EF02F0126A12821200640E0060A2
:1003F00022EC02F0140E11601EEF02F081B4120024
:10040000006A47EC02F0126A12841200640E006067
:1004100022EC02F081A4120047EC02F0140E1160ED
:1004200025EF02F014EF02F0126A046A8C6859ECAE
:1004300002F0066A076A6FEC01F01200126A44ECDF
:1004400001F01200112A006A1200126A120047EC31
:1004500002F047EC02F01280116A006A12008B94DD
:100460008B96006A47EC02F043EC02F0000E066443
:100470001EEF01F02AEC01F0C4EC00F0120081A4A0
:100480003FEF02F0120081A243EF02F012000A0EC9
:10049000006447EF02F0120087EC02F01200AE6A2F
:1004A0004CEC01F0046A0480016A12008B848B8694
:1004B00012008B948B9612000A0E016456EF02F024
:1004C00059EC02F0140E0160016A120004B2B4EF9C
:1004D00002F004B4AAEF02F004B6AFEF02F004B8E1
:1004E0008DEF02F01200016A046A04881200046AA7
:1004F000000E076482EF02F00484032A016ACBEF46
:1005000002F012000486140E036E7EEF02F0046AFD
:10051000016A036A02700482120003500164CBEF87
:1005200002F0000E0764A7EF02F005500164D4EF5B
:1005300002F0016A000E0764A3EF02F00306D8B8C8
:1005400087EF02F01200040E035E9FEF02F0050435
:1005500096EF02F0740E016073EF02F01200140EB9
:10056000016073EF02F0120003500164CBEF02F060
:1005700005500162D4EF02F0016A000E0764C7EF74
:1005800002F0032A05500362120077EF02F0050E15
:100590000326C2EF02F002B0D0EF02F08B8412000B
:1005A0008B8612008B96120002B0D2EF02F08B9471
:0205B000120037
:020000040030CA
:0100010006F8
:010003001EDE
:010005008179
:010006008178
:00000001FF
