:020000040000FA
:040000005DEF00F0C0
:020004000000FA
:040008000DEF00F008
:0800180011004CEC00F0002A7D
:10002000012A092A1100030EC26E0E0EC16E840E43
:10003000C06E12005C0E8C6E8B6A046A066A006ADF
:10004000016A026A036A056A096A086A140E056E83
:100050001200900EAB6E260EAC6E810EAF6EB06AC3
:10006000B86A120094909492949694949380938298
:100070009384939695909592959495969598959A44
:10008000959EC69AF19E1200880ED56ED09EE00E07
:10009000F26E4CEC00F01200D80ED76EF00ED66E59
:0400A000F2941200C4
:1000B0007FF54C64716202F4002013EC00F01AEC3E
:1000C00000F032EC00F029EC00F044EC00F09EBAB5
:1000D00078EC00F081A405EC01F081A20DEC01F0B8
:1000E00004B036EC01F004A040EC01F067EF00F042
:1000F000AEAE1200800EAE64DAEF00F0810EAE6498
:10010000DDEF00F0820EAE649FEF00F0830EAE6470
:10011000A2EF00F0840EAE6426EF01F0850EAE640F
:1001200029EF01F0870EAE6492EF01F0890EAE6404
:100130009BEF00F01200B1EC00F08B841200046A17
:10014000048212007F0E8C6E046A0480B1EC00F011
:100150001200820EAD6EB5EF00F0800EAD6EB5EF01
:1001600000F0010EAD6EB5EF00F0ACA2B5EF00F0FF
:1001700012009EAAB9EF00F0120081B01200840EA6
:1001800009641200096A880EAD6EB5EF00F0120026
:1001900008B21200096A086A08828A968B861200E1
:1001A0009EAAD0EF00F0AECF06F006C0ADFFB5ECD2
:1001B00000F01200006AADEC00F0AE6A066AD0EC06
:1001C00000F0076A046AEA6A800EE96E9EAAE6EF0A
:1001D00000F0970E0760F6EF00F0AECFEEFF072AB3
:1001E00007C0ADFFB5EC00F0E6EF00F006B8FDEF9C
:1001F00000F0069E076A55EF01F006BEF9EF00F029
:10020000068E076A072AEDEF00F0006A21EC01F084
:1002100019EC01F0B1EC00F01200006A21EC01F0E1
:100220001DEC01F0000E0764A2EF00F09FEC00F05F
:10023000120081A419EF01F0120081A21DEF01F05C
:1002400012000F0E006221EF01F0120055EC01F0D8
:100250001200AE6AB1EC00F0046A0480016A120078
:100260008B848B8612008B948B9612000A0E01648D
:1002700030EF01F033EC01F0140E0160016A12005E
:1002800004B26EEF01F004B469EF01F004B65BEF65
:1002900001F01200016A046A04861200046A0484F0
:1002A000032A016A7DEF01F01200046A016A036A01
:1002B000027004821200035001647DEF01F00550CA
:1002C000016486EF01F0016A0306D8B855EF01F02A
:1002D0001200740E01604AEF01F012000350016435
:1002E0007DEF01F00550016486EF01F0016A032AF9
:1002F000055003604EEF01F0120002B082EF01F0F2
:100300008B8412008B8612008B96120002B084EF51
:1003100001F08B941200850EAD6EB5EC00F0B9ECD7
:1003200000F012000250AD6EB5EC00F00328AD6E87
:0E033000B5EC00F0B9EC00F0B1EC00F01200FA
:020000040030CA
:0100010006F8
:010003001EDE
:010005008179
:010006008178
:00000001FF
