:020000040000FA
:0400000055EF00F0C8
:040008000DEF00F008
:08001800110049EC00F0002A80
:10002000012A1100030EC26E0E0EC16E840EC06E48
:1000300012005C0E8C6E8B6A020E046E066A006AF9
:10004000016A026A036A056A140E056E1200900EB8
:10005000AB6E260EAC6E810EAF6EB06AB86A12003F
:100060009490949294969494938093829384959090
:100070009592959495969598959A959EC69AF19E87
:100080001200880ED56ED09EE00EF26E49EC00F0A4
:0E0090001200D80ED76EF00ED66EF29412004B
:02009E00000060
:1000A0007FF54C64716202F4002012EC00F019EC50
:1000B00000F030EC00F027EC00F041EC00F09EBACC
:1000C00070EC00F081A4CEEC00F081A2D6EC00F040
:1000D00004B0F5EC00F004A0FFEC00F05FEF00F0DE
:1000E000AEAE1200800EAE64A9EF00F0810EAE64D9
:1000F000ABEF00F0820EAE6483EF00F0860EAE64CC
:1001000086EF00F01200046A048212007F0E8C6EEB
:10011000046A048095EC00F01200820EAD6E99EF37
:1001200000F0800EAD6E99EF00F0810EAD6E99EF8C
:1001300000F0ACA299EF00F012009EAA9DEF00F033
:1001400012009EAAA1EF00F0AECF06F091EC00F0F5
:10015000120091EC00F0AE6AA1EC00F0076A046AAC
:10016000EA6A800EE96E9EAAB3EF00F0990E07606E
:10017000C1EF00F0AECFEEFF072A95EC00F0B3EF31
:1001800000F006B8C8EF00F016EC01F0069E120071
:1001900006BEC4EF00F0068EBAEF00F0006AEAEC8B
:1001A00000F0E2EC00F095EC00F01200006AEAECDE
:1001B00000F0E6EC00F0000E076486EF00F083EC40
:1001C00000F0120081A4E2EF00F0120081A2E6EF3D
:1001D00000F012000F0E0062EAEF00F012008B84B4
:1001E0008B8612008B948B9612000A0E0164EFEF3F
:1001F00000F0F2EC00F0140E0160016A120004B28B
:1002000031EF01F004B42CEF01F004B61CEF01F063
:100210001200016A046A04861200046A0484032A34
:1002200057EC01F0016A42EF01F01200046A016A22
:10023000036A02700482120057EC01F0035001645B
:1002400042EF01F0055001644BEF01F0016A030633
:10025000D8B816EF01F01200740E016009EF01F03A
:10026000120057EC01F00350016442EF01F0055019
:1002700001644BEF01F0016A032A055003600DEFA2
:1002800001F0120002B047EF01F08B8412008B8660
:1002900012008B96120002B049EF01F08B9412000D
:1002A000840EAD6E99EC00F09DEC00F01200830E10
:1002B000AD6E99EC00F09DEC00F002C0ADFF99EC42
:0E02C00000F09DEC00F003C0ADFF99EF00F0E0
:020000040030CA
:0100010006F8
:010003001EDE
:010005008179
:010006008178
:00000001FF
