:020000040000FA
:0400000065EF00F0B8
:020004000000FA
:040008000DEF00F008
:08001800110052EC00F0002A77
:10002000012A092A1100010EC26E0E0EC16E840E45
:10003000C06E1200046A066A006A016A026A036AF4
:10004000056A096A086A0B6A0A6A126A1368050E69
:100050000F6E0A0E106E140E056E1200900EAB6E2F
:10006000260EAC6E810EAF6EB06AB86A1200949A1A
:10007000949694949380938293849396959095927A
:10008000959495969598959A959EC69AF19E8C68AA
:100090008B6A1200880ED56ED09EE00EF26E52EC86
:1000A00000F01200D80ED76EF00ED66EF294120049
:1000C00080F54C64716202F4002013EC00F01AEC2D
:1000D00000F037EC00F02EEC00F04AEC00F09EBA95
:1000E00087EC00F012EC02F081A26AEC02F004B09E
:1000F00097EC02F004A0A1EC02F008A082EC01F061
:1001000081B08EEC01F0A1EC01F06FEF00F0AEAE2B
:1001100012008B8A800EAE64D3EF01F0810EAE64C4
:10012000D3EF01F0820EAE64E3EF00F0830EAE6415
:1001300048EF01F0840EAE6487EF02F0850EAE64E6
:100140008AEF02F0890EAE64B3EF00F08A0EAE645F
:100150004FEF02F08B0EAE6466EF01F08C0EAE64D2
:100160005CEF01F0120076EC01F08B841200000EBF
:10017000F86E000EF76EC00EF66E12000900F5CF95
:100180008CFF1200EF0E8C6E12000F500062CFEF4A
:1001900000F010500062D2EF00F0D5EF00F08B8A33
:1001A000C5EF00F08B9AC9EF00F00A2A006A0A0E28
:1001B0000A64C5EF00F0DDEF00F00A0E00601200E7
:1001C0008B9ADDEF00F0000E076448EF01F0006A43
:1001D0000A6A8B9AC5EC00F0006AEA6A800EE96E42
:1001E0000B6A0D6A0A6A400E0C6E4EEC01F083CF6A
:1001F00013F0B7EC00F0BEEC00F00CC0ADFF7AECF1
:1002000001F00F5000623CEF01F01050006242EF2D
:1002100001F0006A0A2A0D2A070E0D642AEF01F088
:100220000D6AEECF0CF00CC0ADFF7AEC01F00E5071
:100230000A602DEF01F001EF01F00EC0ADFF7AEC86
:1002400001F00AC0ADFF7AEC01F00BC0ADFF7AEC13
:1002500001F012000C4201EF01F00B2A0A6ABEEC19
:1002600000F00A0E0B6037EF01F001EF01F0046AB5
:10027000048213C08CFF12000CB08B9A0CA08B8AE6
:1002800001EF01F00CB08B8A0CA08B9A05EF01F006
:100290007F0E8C6E046A04829DEF01F006B8F80EA2
:1002A00006A8800E0E6E1200870EAD6E7AEC01F07D
:1002B00006C0ADFF7AEF01F09EAA5CEF01F0AECF71
:1002C0000FF07EEC01F0AECF10F0120006C0ADFFD3
:1002D0007AEF01F0820EAD6E7AEF01F0810EAD6E15
:1002E0007AEF01F0800EAD6E7AEF01F0010EAD6E87
:1002F0007AEF01F0ACA27AEF01F012009EAA7EEF35
:1003000001F0120081B012008A86340E09641200D6
:10031000096A880EAD6E7AEF01F012008A9608B273
:100320001200096A086A08821200860EAD6E7AEF22
:1003300001F08A0EAD6E7AEF01F0830EAD6E7AEFAA
:1003400001F0640E006412000C6AC282C2B2A6EF11
:1003500001F08D0EAD6E7AEC01F0C3CF0CF0C4CF7E
:100360000AF00A460A460A460A460A460A460C4265
:100370000C423F0E0C160A500C26000E0C640C2A80
:100380000CC0ADFF7AEC01F0006A0C6A0A6A120038
:1003900012009EAAC9EF01F0AECF06F006C0ADFF75
:1003A0007AEC01F0120072EC01F0006AAE6A066AA3
:1003B000C9EC01F0076A046AEA6A800EE96E072A4E
:1003C0009EAAE0EF01F00B0E0760F0EF01F0AECF58
:1003D000EEFF07C0ADFF7AEC01F0072AE0EF01F075
:1003E000076AFAEF01F09EAAF3EF01F0960E07609C
:1003F00003EF02F0AECFEEFF072A07C0ADFF7AECA5
:1004000001F0F3EF01F006B80BEF02F0069EC2EC2C
:1004100000F0C1EF02F006BE06EF02F0068E076A9A
:10042000FAEF01F0000E126420EF02F012B024EF98
:1004300002F012B231EF02F012B441EF02F01200FA
:1004400081A462EF02F01200640E00605DEC02F025
:1004500081A41200140E116060EF02F0126A128281
:100460001200640E00605DEC02F0140E116059EF92
:1004700002F081B41200006A82EC02F0126A128467
:100480001200640E00605DEC02F081A4120082ECA8
:1004900002F0140E116060EF02F04FEF02F0126AEA
:1004A000046A8C6894EC02F0066A076A99EC01F021
:1004B0001200126A6EEC01F01200112A006A12009A
:1004C000126A120082EC02F082EC02F01280116AD1
:1004D000006A12008B948B96006A82EC02F07EEC2C
:1004E00002F0000E066448EF01F054EC01F0E3EC7A
:1004F00000F0120081A47AEF02F0120081A27EEFD8
:1005000002F012000A0E006482EF02F01200C1EC49
:1005100002F01200AE6A76EC01F0046A0480016A0F
:1005200012008B848B8612008B948B9612000A0E1D
:10053000016491EF02F094EC02F0140E0160016A84
:10054000120004B2ECEF02F004B4E2EF02F004B6E1
:10055000E7EF02F004B8C7EF02F01200016A046A84
:1005600004881200046A06B6BCEF02F00484032A71
:10057000016A03EF03F012000486140E036EB8EF55
:1005800002F0046A016A036A0270048212000350D6
:10059000016403EF03F006B6DFEF02F005500164DB
:1005A0000CEF03F0016A06B6DBEF02F00306D8B8E1
:1005B000C1EF02F01200040E035ED7EF02F0050453
:1005C000CFEF02F0740E0160AEEF02F01200140ED5
:1005D0000160AEEF02F012000350016403EF03F07C
:1005E000055001620CEF03F0016A000E0764FFEF93
:1005F00002F0032A055003621200B2EF02F0050E6A
:100600000326FAEF02F002B008EF03F08B84120029
:100610008B8612008B96120002B00AEF03F08B94C7
:020620001200C6
:020000040030CA
:0100010006F8
:010003001EDE
:010005008179
:010006008178
:00000001FF
