:020000040000FA
:0400000065EF00F0B8
:020004000000FA
:040008000DEF00F008
:08001800110052EC00F0002A77
:10002000012A092A1100010EC26E0E0EC16E840E45
:10003000C06E1200046A066A006A016A026A036AF4
:10004000056A096A086A0B6A0A6A126A1368050E69
:100050000F6E0A0E106E140E056E1200900EAB6E2F
:10006000260EAC6E810EAF6EB06AB86A1200949A1A
:10007000949694949380938293849396959095927A
:10008000959495969598959A959EC69AF19E8C68AA
:100090008B6A1200880ED56ED09EE00EF26E52EC86
:1000A00000F01200D80ED76EF00ED66EF294120049
:1000C00080F54C64716202F4002013EC00F01AEC2D
:1000D00000F037EC00F02EEC00F04AEC00F09EBA95
:1000E00087EC00F0E8EC01F081A240EC02F004B0F3
:1000F0006DEC02F004A077EC02F008A058EC01F0DF
:1001000081B064EC01F077EC01F06FEF00F0AEAE7F
:100110001200800EAE64A9EF01F0810EAE64A9EF6B
:1001200001F0820EAE64C4EF00F0830EAE641EEFE9
:1001300001F0840EAE645DEF02F0850EAE6460EFF8
:1001400002F0890EAE64B2EF00F08A0EAE6425EFC5
:1001500002F08B0EAE643CEF01F08C0EAE6432EF19
:1001600001F012004CEC01F08B841200000EF86ECE
:10017000000EF76EC00EF66E12000900F5CF8CFF70
:100180001200EF0E8C6E1200000E07641EEF01F0DD
:10019000EA6A800EE96E0B6A0D6A0A6AEECF0CF00D
:1001A00024EC01F0006A83CF13F0B6EC00F0BDEC54
:1001B00000F00F50006212EF01F01050006218EFD3
:1001C00001F0006A6BEC01F00A2A0D2A080E0D649A
:1001D00000EF01F00D6AEECF0CF00E500A6003EF55
:1001E00001F0D9EF00F00EC0ADFF50EC01F00AC0F5
:1001F000ADFF50EC01F00BC0ADFF50EC01F0120070
:100200000C42D9EF00F00B2A0A6ABDEC00F00A0E8E
:100210000B600DEF01F0D9EF00F0046A048213C007
:100220008CFF12000CB08B9A0CA08B8AD9EF00F0D7
:100230000CB08B8A0CA08B9ADDEF00F07F0E8C6ED9
:10024000046A048273EF01F006B8F00E06A8780E77
:100250000E6E1200870EAD6E50EC01F006C0ADFFC1
:1002600050EF01F09EAA32EF01F0AECF0FF054EC48
:1002700001F0AECF10F0120006C0ADFF50EF01F05C
:10028000820EAD6E50EF01F0810EAD6E50EF01F0B9
:10029000800EAD6E50EF01F0010EAD6E50EF01F02B
:1002A000ACA250EF01F012009EAA54EF01F0120030
:1002B00081B012008A86340E09641200096A880E21
:1002C000AD6E50EF01F012008A9608B21200096A72
:1002D000086A08821200860EAD6E50EF01F08A0E99
:1002E000AD6E50EF01F0830EAD6E50EF01F0640E75
:1002F000006412000C6AC282C2B27CEF01F08D0E63
:10030000AD6E50EC01F0C3CF0CF0C4CF0AF00A463A
:100310000A460A460A460A460A460C420C423F0E64
:100320000C160A500C26000E0C640C2A0CC0ADFFF3
:1003300050EC01F0006A0C6A0A6A120012009EAAD0
:100340009FEF01F0AECF06F006C0ADFF50EC01F01C
:10035000120048EC01F0006AAE6A066A9FEC01F0F8
:10036000076A046AEA6A800EE96E072A9EAAB6EF57
:1003700001F00B0E0760C6EF01F0AECFEEFF07C035
:10038000ADFF50EC01F0072AB6EF01F0076AD0EF9D
:1003900001F09EAAC9EF01F0960E0760D9EF01F0B7
:1003A000AECFEEFF072A07C0ADFF50EC01F0C9EF5A
:1003B00001F006B8E1EF01F0069EC1EC00F097EF06
:1003C00002F006BEDCEF01F0068E076AD0EF01F006
:1003D000000E1264F6EF01F012B0FAEF01F012B263
:1003E00007EF02F012B417EF02F0120081A438EF09
:1003F00002F01200640E006033EC02F081A41200DF
:10040000140E116036EF02F0126A12821200640EAE
:10041000006033EC02F0140E11602FEF02F081B493
:100420001200006A58EC02F0126A12841200640E84
:10043000006033EC02F081A4120058EC02F0140EBC
:10044000116036EF02F025EF02F0126A046A8C6840
:100450006AEC02F0066A076A6FEC01F01200126A99
:1004600044EC01F01200112A006A1200126A120014
:1004700058EC02F058EC02F01280116A006A120087
:100480008B948B96006A58EC02F054EC02F0000E4C
:1004900006641EEF01F02AEC01F0C4EC00F012003B
:1004A00081A450EF02F0120081A254EF02F012007A
:1004B0000A0E006458EF02F0120097EC02F01200EE
:1004C000AE6A4CEC01F0046A0480016A12008B846D
:1004D0008B8612008B948B9612000A0E016467EFD4
:1004E00002F06AEC02F0140E0160016A120004B21C
:1004F000C2EF02F004B4B8EF02F004B6BDEF02F0B0
:1005000004B89DEF02F01200016A046A0488120028
:10051000046A06B692EF02F00484032A016AD9EF56
:1005200002F012000486140E036E8EEF02F0046ACD
:10053000016A036A02700482120003500164D9EF59
:1005400002F006B6B5EF02F005500164E2EF02F0EA
:10055000016A06B6B1EF02F00306D8B897EF02F0D1
:100560001200040E035EADEF02F00504A5EF02F0E9
:10057000740E016084EF02F01200140E016084EF2B
:1005800002F0120003500164D9EF02F0055001623D
:10059000E2EF02F0016A000E0764D5EF02F0032AD1
:1005A00005500362120088EF02F0050E0326D0EF1B
:1005B00002F002B0DEEF02F08B8412008B86120094
:0E05C0008B96120002B0E0EF02F08B94120056
:020000040030CA
:0100010006F8
:010003001EDE
:010005008179
:010006008178
:00000001FF
