:020000040000FA
:0400000065EF00F0B8
:020004000000FA
:040008000DEF00F008
:08001800110052EC00F0002A77
:10002000012A092A1100010EC26E0E0EC16E840E45
:10003000C06E1200046A066A006A016A026A036AF4
:10004000056A096A086A0B6A0A6A126A1368050E69
:100050000F6E0A0E106E140E056E1200900EAB6E2F
:10006000260EAC6E810EAF6EB06AB86A1200949A1A
:10007000949694949380938293849396959095927A
:10008000959495969598959A959EC69AF19E8C68AA
:100090008B6A1200880ED56ED09EE00EF26E52EC86
:1000A00000F01200D80ED76EF00ED66EF294120049
:1000C00080F54C64716202F4002013EC00F01AEC2D
:1000D00000F037EC00F02EEC00F04AEC00F09EBA95
:1000E00087EC00F00BEC02F081A263EC02F004B0AC
:1000F00090EC02F004A09AEC02F008A07BEC01F076
:1001000081B087EC01F09AEC01F06FEF00F0AEAE39
:100110001200800EAE64CCEF01F0810EAE64CCEF25
:1001200001F0820EAE64E2EF00F0830EAE6441EFA8
:1001300001F0840EAE6480EF02F0850EAE6483EFB2
:1001400002F0890EAE64B2EF00F08A0EAE6448EFA2
:1001500002F08B0EAE645FEF01F08C0EAE6455EFD3
:1001600001F012006FEC01F08B841200000EF86EAB
:10017000000EF76EC00EF66E12000900F5CF8CFF70
:100180001200EF0E8C6E12000F500062CEEF00F0E6
:1001900010500062D1EF00F0D4EF00F08B8AC4EF72
:1001A00000F08B9AC8EF00F00A2A006A0A0E0A646F
:1001B000C4EF00F0DCEF00F00A0E006012008B9A32
:1001C000DCEF00F0000E076441EF01F0006A0A6AFC
:1001D0008B9AC4EC00F0006AEA6A800EE96E0B6A42
:1001E0000D6A0A6AEECF0CF047EC01F083CF13F0F2
:1001F000B6EC00F0BDEC00F00F50006235EF01F0FE
:10020000105000623BEF01F0006A8EEC01F00A2A08
:100210000D2A080E0D6423EF01F00D6AEECF0CF0ED
:100220000E500A6026EF01F0FCEF00F00EC0ADFFAB
:1002300073EC01F00AC0ADFF73EC01F00BC0ADFF31
:1002400073EC01F012000C42FCEF00F00B2A0A6A7A
:10025000BDEC00F00A0E0B6030EF01F0FCEF00F097
:10026000046A048213C08CFF12000CB08B9A0CA09D
:100270008B8AFCEF00F00CB08B8A0CA08B9A00EFFD
:1002800001F07F0E8C6E046A048296EF01F006B8CE
:10029000F00E06A8780E0E6E1200870EAD6E73EC8F
:1002A00001F006C0ADFF73EF01F09EAA55EF01F01B
:1002B000AECF0FF077EC01F0AECF10F0120006C019
:1002C000ADFF73EF01F0820EAD6E73EF01F0810EA2
:1002D000AD6E73EF01F0800EAD6E73EF01F0010EA5
:1002E000AD6E73EF01F0ACA273EF01F012009EAAA5
:1002F00077EF01F0120081B012008A86340E096493
:100300001200096A880EAD6E73EF01F012008A9632
:1003100008B21200096A086A08821200860EAD6EE1
:1003200073EF01F08A0EAD6E73EF01F0830EAD6EC8
:1003300073EF01F0640E006412000C6AC282C2B254
:100340009FEF01F08D0EAD6E73EC01F0C3CF0CF09A
:10035000C4CF0AF00A460A460A460A460A460A4630
:100360000C420C423F0E0C160A500C26000E0C6478
:100370000C2A0CC0ADFF73EC01F0006A0C6A0A6A2B
:10038000120012009EAAC2EF01F0AECF06F006C026
:10039000ADFF73EC01F012006BEC01F0006AAE6A85
:1003A000066AC2EC01F0076A046AEA6A800EE96E26
:1003B000072A9EAAD9EF01F00B0E0760E9EF01F0C2
:1003C000AECFEEFF07C0ADFF73EC01F0072AD9EF07
:1003D00001F0076AF3EF01F09EAAECEF01F0960E30
:1003E0000760FCEF01F0AECFEEFF072A07C0ADFFBC
:1003F00073EC01F0ECEF01F006B804EF02F0069E9A
:10040000C1EC00F0BAEF02F006BEFFEF01F0068E7D
:10041000076AF3EF01F0000E126419EF02F012B058
:100420001DEF02F012B22AEF02F012B43AEF02F01E
:10043000120081A45BEF02F01200640E006056EC23
:1004400002F081A41200140E116059EF02F0126A3A
:1004500012821200640E006056EC02F0140E11605D
:1004600052EF02F081B41200006A7BEC02F0126AD3
:1004700012841200640E006056EC02F081A4120097
:100480007BEC02F0140E116059EF02F048EF02F01D
:10049000126A046A8C688DEC02F0066A076A92ECB4
:1004A00001F01200126A67EC01F01200112A006AD2
:1004B0001200126A12007BEC02F07BEC02F0128058
:1004C000116A006A12008B948B96006A7BEC02F032
:1004D00077EC02F0000E066441EF01F04DEC01F004
:1004E000E2EC00F0120081A473EF02F0120081A28E
:1004F00077EF02F012000A0E00647BEF02F01200A8
:10050000BAEC02F01200AE6A6FEC01F0046A0480EB
:10051000016A12008B848B8612008B948B961200DA
:100520000A0E01648AEF02F08DEC02F0140E0160F5
:10053000016A120004B2E5EF02F004B4DBEF02F04E
:1005400004B6E0EF02F004B8C0EF02F01200016A56
:10055000046A04881200046A06B6B5EF02F0048447
:10056000032A016AFCEF02F012000486140E036EE7
:10057000B1EF02F0046A016A036A02700482120099
:1005800003500164FCEF02F006B6D8EF02F005500C
:10059000016405EF03F0016A06B6D4EF02F003062A
:1005A000D8B8BAEF02F01200040E035ED0EF02F0EA
:1005B0000504C8EF02F0740E0160A7EF02F012000C
:1005C000140E0160A7EF02F0120003500164FCEF6B
:1005D00002F00550016205EF03F0016A000E0764A6
:1005E000F8EF02F0032A055003621200ABEF02F0AD
:1005F000050E0326F3EF02F002B001EF03F08B8447
:1006000012008B8612008B96120002B003EF03F0EB
:040610008B941200B5
:020000040030CA
:0100010006F8
:010003001EDE
:010005008179
:010006008178
:00000001FF
